:100000000C942A000C943C000C943C000C943C0092
:100010000C943C000C943C000C943C000C943C0070
:100020000C943C000C943C000C943C000C943C0060
:100030000C943C000C9463010C943C000C94A201C1
:100040000C943C000C943C000C943C000C943C0040
:100050000C943C0011241FBECFE5D8E0DEBFCDBF1D
:1000600010E0A0E6B0E001C01D92AA3CB107E1F7A4
:100070000E94FA080C9403090C940000DF93CF93BC
:100080000F92CDB7DEB71982898180688983898113
:100090008F7B8983A0E4B0E0E0E4F0E080818F779B
:1000A0008C93E0E4F0E01082E9E2F0E083E3808307
:1000B000AAE2B0E0EAE2F0E0808180618C93AAE2FB
:1000C000B0E0EAE2F0E0808188608C9389818F7EE5
:1000D000898389818F7D89838981877F89838981CC
:1000E00082608983898184608983E0E4F0E089818A
:1000F000808381E08093600081E00F90CF91DF9159
:100100000895DF93CF9300D0CDB7DEB78983809178
:100110006000882311F41A8212C0EBE2F0E08081C3
:10012000829586958770882F90E0817090700097F7
:10013000A1F3ECE2F0E08981808381E08A838A8107
:100140000F900F90CF91DF910895DF93CF9300D060
:10015000CDB7DEB79A838983EBE2F0E08081882314
:10016000DCF7ECE2F0E08081E981FA81808381E0D4
:100170000F900F90CF91DF910895DF93CF9300D030
:1001800000D0CDB7DEB79B838A838091600088233F
:1001900011F41C821DC019820EC08981282F30E005
:1001A0008A819B81FC01E20FF31F80810E94810004
:1001B00089818F5F89838981282F30E08A819B81A3
:1001C000FC01E20FF31F8081882339F781E08C83E3
:1001D0008C810F900F900F900F90CF91DF91089529
:1001E000DF93CF9300D000D0CDB7DEB79B838A8357
:1001F00080916000882311F41C8238C019828981A3
:10020000282F30E08A819B81820F931F0E94A500D6
:100210000CC089818F5F89838981282F30E08A8192
:100220009B81820F931F0E94A5008981282F30E0B7
:100230008A819B81FC01E20FF31F80818A3059F093
:100240008981282F30E08A819B81FC01E20FF31F16
:1002500080818D30F1F68981282F30E08A819B8161
:10026000FC01E20FF31F108281E08C838C810F90E0
:100270000F900F900F90CF91DF910895DF93CF9360
:100280000F92CDB7DEB704C0ECE2F0E08081898345
:10029000EBE2F0E080818823BCF30F90CF91DF91F7
:1002A0000895DF93CF9300D0CDB7DEB79A838983CB
:1002B00089819A8190936300809362000F900F90E0
:1002C000CF91DF9108951F920F920FB60F921124D4
:1002D0002F933F934F935F936F937F938F939F934E
:1002E000AF93BF93EF93FF93DF93CF93CDB7DEB779
:1002F000E0916200F09163000995CF91DF91FF9149
:10030000EF91BF91AF919F918F917F916F915F918D
:100310004F913F912F910F900FBE0F901F90189506
:10032000DF93CF9300D0CDB7DEB79A8389838981DD
:100330009A8190936300809362000F900F90CF9109
:10034000DF9108951F920F920FB60F9211242F93F1
:100350003F934F935F936F937F938F939F93AF934D
:10036000BF93EF93FF93DF93CF93CDB7DEB7E091C9
:100370006400F09165000995CF91DF91FF91EF91B5
:10038000BF91AF919F918F917F916F915F914F91AD
:100390003F912F910F900FBE0F901F901895DF93F4
:1003A000CF93CDB7DEB7A7E3B0E0E7E3F0E080811D
:1003B000806B8C93ADE2B0E0EDE2F0E080818E7F67
:1003C0008C93ADE2B0E0EDE2F0E080818D7F8C9324
:1003D000AEE2B0E0EEE2F0E080818E7F8C93ADE2A1
:1003E000B0E0EDE2F0E08081877F8C93ADE2B0E099
:1003F000EDE2F0E080818B7F8C93ADE2B0E0EDE246
:10040000F0E080818F778C93ADE2B0E0EDE2F0E038
:1004100080818F7D8C93ADE2B0E0EDE2F0E08081F1
:1004200080658C93CF91DF910895DF93CF930F92E6
:10043000CDB7DEB78983EFE2F0E089818083EEE219
:10044000F0E080818823DCF70F90CF91DF91089551
:10045000DF93CF93CDB7DEB7A7E3B0E0E7E3F0E0FB
:10046000808180648C93EDE2F0E080E48083CF9122
:10047000DF910895DF93CF93CDB7DEB7EEE2F0E0E2
:1004800080818823DCF7EFE2F0E08081CF91DF917B
:100490000895DF93CF93CDB7DEB72A970FB6F894C0
:1004A000DEBF0FBECDBF89836A834B838A818830CC
:1004B00018F02FEF2A87D1C18B81813009F07BC0E2
:1004C0008981282F30E0398728878885998582306F
:1004D000910569F1288539852330310534F4888503
:1004E00099858130910569F063C02885398523306D
:1004F000310591F1888599858430910509F442C0D0
:1005000057C0AAE3B0E0EAE3F0E08081482F8A8197
:10051000282F30E081E090E0022E02C0880F991F62
:100520000A94E2F7842B8C9391E09A8796C1A7E313
:10053000B0E0E7E3F0E08081482F8A81282F30E0A7
:1005400081E090E002C0880F991F2A95E2F7842B82
:100550008C9321E02A8781C1A4E3B0E0E4E3F0E0DA
:100560008081482F8A81282F30E081E090E0022EA0
:1005700002C0880F991F0A94E2F7842B8C9331E014
:100580003A876BC1A1E3B0E0E1E3F0E08081482F5E
:100590008A81282F30E081E090E0022E02C0880F8F
:1005A000991F0A94E2F7842B8C9381E08A8755C1C6
:1005B0009EEF9A8752C18B81882309F07FC0898181
:1005C000282F30E03F832E838E819F8182309105DA
:1005D00071F12E813F812330310534F48E819F816A
:1005E0008130910569F067C02E813F81233031054C
:1005F000A1F18E819F818430910509F445C05BC0D3
:10060000AAE3B0E0EAE3F0E08081482F8A81282F56
:1006100030E081E090E0022E02C0880F991F0A941A
:10062000E2F7809584238C9391E09A8716C1A7E323
:10063000B0E0E7E3F0E08081482F8A81282F30E0A6
:1006400081E090E002C0880F991F2A95E2F780951B
:1006500084238C9321E02A8700C1A4E3B0E0E4E383
:10066000F0E08081482F8A81282F30E081E090E0FF
:10067000022E02C0880F991F0A94E2F78095842306
:100680008C9331E03A87E9C0A1E3B0E0E1E3F0E028
:100690008081482F8A81282F30E081E090E0022E6F
:1006A00002C0880F991F0A94E2F7809584238C93E7
:1006B00081E08A87D2C09EEF9A87CFC08B8182303B
:1006C00009F0C9C08981282F30E03D832C838C81BB
:1006D0009D818230910509F441C02C813D812330F8
:1006E000310534F48C819D818130910571F0B0C069
:1006F0002C813D812330310509F458C08C819D81C6
:100700008430910509F47BC0A3C0AAE3B0E0EAE31A
:10071000F0E08081482F8A81282F30E081E090E04E
:1007200002C0880F991F2A95E2F7809584238C9345
:10073000ABE3B0E0EBE3F0E08081482F8A81282F23
:1007400030E081E090E0022E02C0880F991F0A94E9
:10075000E2F7842B8C9391E09A877FC0A7E3B0E007
:10076000E7E3F0E08081482F8A81282F30E081E0A4
:1007700090E002C0880F991F2A95E2F780958423A4
:100780008C93A8E3B0E0E8E3F0E08081482F8A8111
:10079000282F30E081E090E002C0880F991F2A9551
:1007A000E2F7842B8C9321E02A8757C0A4E3B0E0C2
:1007B000E4E3F0E08081482F8A81282F30E081E057
:1007C00090E002C0880F991F2A95E2F78095842354
:1007D0008C93A5E3B0E0E5E3F0E08081482F8A81C7
:1007E000282F30E081E090E0022E02C0880F991F90
:1007F0000A94E2F7842B8C9331E03A872EC0A1E370
:10080000B0E0E1E3F0E08081482F8A81282F30E0DA
:1008100081E090E002C0880F991F2A95E2F7809549
:1008200084238C93A2E3B0E0E2E3F0E08081482FE0
:100830008A81282F30E081E090E0022E02C0880FEC
:10084000991F0A94E2F7842B8C9381E08A8705C074
:100850009EEF9A8702C02DEF2A878A852A960FB6C7
:10086000F894DEBF0FBECDBFCF91DF910895DF9327
:10087000CF9300D000D00F92CDB7DEB789836A83C3
:100880008981282F30E03D832C838C819D818230AB
:10089000910569F12C813D812330310534F48C813F
:1008A0009D818130910569F064C02C813D812330A8
:1008B000310599F18C819D818430910509F443C003
:1008C00058C08A81813039F4EAE3F0E08FEF808309
:1008D00091E09B8350C08A81882331F4EAE3F0E001
:1008E000108221E02B8347C03FEF3B8344C08A81C5
:1008F000813039F4E7E3F0E08FEF808381E08B8390
:100900003AC08A81882331F4E7E3F0E0108291E075
:100910009B8331C02FEF2B832EC08A81813039F425
:10092000E4E3F0E08FEF808331E03B8324C08A81F1
:10093000882331F4E4E3F0E0108281E08B831BC074
:100940009FEF9B8318C08A81813039F4E1E3F0E0A6
:100950008FEF808321E02B830EC08A81882331F4BE
:10096000E1E3F0E0108231E03B8305C08FEF8B8341
:1009700002C09FEF9B838B810F900F900F900F9081
:100980000F90CF91DF910895DF93CF93CDB7DEB76E
:1009900028970FB6F894DEBF0FBECDBF89836A8358
:1009A0004B838A81883018F02FEF288704C18B8110
:1009B000813009F07BC08981282F30E03F832E836E
:1009C0008E819F818230910569F12E813F81233094
:1009D000310534F48E819F818130910569F063C0C7
:1009E0002E813F812330310591F18E819F818430AA
:1009F000910509F442C057C0ABE3B0E0EBE3F0E08F
:100A00008081482F8A81282F30E081E090E0022EFB
:100A100002C0880F991F0A94E2F7842B8C9391E00F
:100A20009887C9C0A8E3B0E0E8E3F0E08081482FF0
:100A30008A81282F30E081E090E002C0880F991F62
:100A40002A95E2F7842B8C9321E02887B4C0A5E394
:100A5000B0E0E5E3F0E08081482F8A81282F30E084
:100A600081E090E0022E02C0880F991F0A94E2F7FD
:100A7000842B8C9331E038879EC0A2E3B0E0E2E3A0
:100A8000F0E08081482F8A81282F30E081E090E0DB
:100A9000022E02C0880F991F0A94E2F7842B8C93D0
:100AA00081E0888788C09EEF988785C08B818823E6
:100AB00009F07FC08981282F30E03D832C838C8111
:100AC0009D818230910571F12C813D81233031056A
:100AD00034F48C819D818130910569F067C02C814F
:100AE0003D8123303105A1F18C819D8184309105B8
:100AF00009F445C05BC0ABE3B0E0EBE3F0E080811C
:100B0000482F8A81282F30E081E090E0022E02C039
:100B1000880F991F0A94E2F7809584238C9391E0C3
:100B2000988749C0A8E3B0E0E8E3F0E08081482F6F
:100B30008A81282F30E081E090E002C0880F991F61
:100B40002A95E2F7809584238C9321E0288733C08F
:100B5000A5E3B0E0E5E3F0E08081482F8A81282F0B
:100B600030E081E090E0022E02C0880F991F0A94C5
:100B7000E2F7809584238C9331E038871CC0A2E390
:100B8000B0E0E2E3F0E08081482F8A81282F30E056
:100B900081E090E0022E02C0880F991F0A94E2F7CC
:100BA000809584238C9381E0888705C09EEF988789
:100BB00002C02DEF2887888528960FB6F894DEBFEF
:100BC0000FBECDBFCF91DF910895DF93CF9300D0BB
:100BD00000D00F92CDB7DEB789836A838981282F31
:100BE00030E03D832C838C819D8182309105E9F03A
:100BF0002C813D812330310534F48C819D818130FD
:100C0000910561F027C02C813D8123303105A1F091
:100C10008C819D8184309105B1F01CC0EBE3F0E044
:100C20008A81808391E09B8317C0E8E3F0E08A81AA
:100C3000808321E02B8310C0E5E3F0E08A8180838C
:100C400031E03B8309C0E2E3F0E08A81808381E008
:100C50008B8302C09FEF9B838B810F900F900F902F
:100C60000F900F90CF91DF910895DF93CF93CDB781
:100C7000DEB727970FB6F894DEBF0FBECDBF8983CE
:100C80006A835C834B838A81883018F02FEF2F832F
:100C90007BC08981482F50E05E834D838D819E818A
:100CA0008230910569F12D813E812330310534F484
:100CB0004D815E814130510569F064C08D819E8116
:100CC0008330910599F12D813E812430310509F45D
:100CD00043C058C0E9E3F0E08081282F30E08A81EA
:100CE000882F90E0A90102C0559547958A95E2F7B3
:100CF000CA018170EB81FC81808351E05F8344C035
:100D0000E6E3F0E08081282F30E08A81882F90E0B0
:100D1000A90102C0559547958A95E2F7CA018170ED
:100D2000EB81FC81808351E05F832EC0E3E3F0E040
:100D30008081282F30E08A81882F90E0A90102C0AD
:100D4000559547958A95E2F7CA018170EB81FC8140
:100D5000808351E05F8318C0E0E3F0E08081282FBA
:100D600030E08A81882F90E0A90102C0559547950F
:100D70008A95E2F7CA018170EB81FC81808351E0A2
:100D80005F8302C08EEF8F838F8127960FB6F89412
:100D9000DEBF0FBECDBFCF91DF910895DF93CF931C
:100DA00000D000D00F92CDB7DEB789836A838A81E5
:100DB000883018F02FEF2D837AC08981282F30E0FA
:100DC0003C832B838B819C818230910569F12B813F
:100DD0003C812330310534F48B819C818130910535
:100DE00069F063C02B813C812330310591F18B8107
:100DF0009C818430910509F442C057C0ABE3B0E058
:100E0000EBE3F0E08081482F8A81282F30E081E0F9
:100E100090E0022E02C0880F991F0A94E2F78427FF
:100E20008C9391E09D8343C0A8E3B0E0E8E3F0E059
:100E30008081482F8A81282F30E081E090E002C035
:100E4000880F991F2A95E2F784278C9321E02D8340
:100E50002EC0A5E3B0E0E5E3F0E08081482F8A8171
:100E6000282F30E081E090E0022E02C0880F991F09
:100E70000A94E2F784278C9331E03D8318C0A2E303
:100E8000B0E0E2E3F0E08081482F8A81282F30E053
:100E900081E090E0022E02C0880F991F0A94E2F7C9
:100EA00084278C9381E08D8302C09EEF9D838D818A
:100EB0000F900F900F900F900F90CF91DF910895AA
:100EC000DF93CF9300D0CDB7DEB789836A8380915B
:100ED0006100882F90E0880F991FFC01EA59FF4FAD
:100EE0008981808380916100882F90E0880F991F0D
:100EF000FC01E959FF4F8A818083809161008F5FF7
:100F0000809361000F900F90CF91DF910895DF9350
:100F1000CF9300D000D0CDB7DEB789838981282F49
:100F200030E03C832B838B819C8181309105E9F0FB
:100F30002B813C81223031052CF48B819C810097E0
:100F400061F02BC02B813C8122303105B1F08B81C7
:100F50009C8183309105C9F020C083E063E041E0CB
:100F60000E94490291E09A8319C083E060E041E069
:100F70000E94490221E02A8311C082E066E041E03C
:100F80000E94490231E03A8309C082E067E041E013
:100F90000E94490281E08A8301C01A828A810F90EF
:100FA0000F900F900F90CF91DF910895DF93CF9323
:100FB000CDB7DEB783E061E00E943704CF91DF91C7
:100FC0000895DF93CF930F92CDB7DEB7898383E087
:100FD00069810E94E5050F90CF91DF910895DF931D
:100FE000CF9300D000D0CDB7DEB789838981282F79
:100FF00030E03C832B838B819C8181309105E9F02B
:101000002B813C81223031052CF48B819C8100970F
:1010100061F02BC02B813C8122303105B1F08B81F6
:101020009C8183309105C9F020C083E063E041E0FA
:101030000E94C40491E09A8319C083E060E041E01B
:101040000E94C40421E02A8311C082E066E041E0EE
:101050000E94C40431E03A8309C082E067E041E0C5
:101060000E94C40481E08A8301C01A828A810F90A1
:101070000F900F900F90CF91DF910895DF93CF9352
:1010800000D000D0CDB7DEB789838981282F30E02A
:101090003C832B838B819C8181309105E9F02B81EE
:1010A0003C81223031052CF48B819C81009761F0CA
:1010B0002BC02B813C8122303105B1F08B819C818A
:1010C00083309105C9F020C083E063E040E00E94D6
:1010D000C40491E09A8319C083E060E040E00E947C
:1010E000C40421E02A8311C082E066E040E00E944F
:1010F000C40431E03A8309C082E067E040E00E9426
:10110000C40481E08A8301C01A828A810F900F9003
:101110000F900F90CF91DF910895DF93CF9300D080
:1011200000D0CDB7DEB789838981282F30E03C839A
:101130002B838B819C8181309105E1F02B813C8157
:10114000223031052CF48B819C81009761F027C0FF
:101150002B813C8122303105A1F08B819C81833031
:101160009105B1F01CC083E063E00E94CE0691E0DF
:101170009A8316C083E060E00E94CE0621E02A83B5
:101180000FC082E066E00E94CE0631E03A8308C0DC
:1011900082E067E00E94CE0681E08A8301C01A8265
:1011A0008A810F900F900F900F90CF91DF9108954B
:1011B000DF93CF93CDB7DEB70E9428020E94D607F7
:1011C000CF91DF910895DF93CF930F92CDB7DEB724
:1011D00019820E943A0289838981813621F48981AA
:1011E0000E94E10703C080E00E94E1070F90CF91C9
:1011F000DF910895DF93CF93CDB7DEB70E94D80873
:0A1200000E94E308FDCFF894FFCF31
:00000001FF
